:020000040800F2
:10000000005000205D3A0008813900088939000855
:100010009139000899390008A13900080000000052
:10002000000000000000000000000000A9390008E6
:10003000B539000800000000C1390008CD390008BA
:10004000A53A0008A53A0008A53A0008A53A000814
:10005000A53A0008A53A0008A53A0008A53A000804
:10006000A53A0008A53A0008A53A0008A53A0008F4
:10007000A53A0008A53A0008A53A0008A53A0008E4
:10008000A53A0008A53A0008A53A0008A53A0008D4
:10009000D9390008A53A0008A53A0008ED3900084A
:1000A000A53A0008A53A0008A53A0008A53A0008B4
:1000B000A53A0008FD390008113A0008A53A0008E1
:1000C000A53A0008A53A0008A53A0008253A000814
:1000D000A53A0008A53A0008A53A0008A53A000884
:1000E000393A0008A53A0008A53A000800000000C7
:1000F0000000000000000000000000000000000000
:0C01000000000000000000005FF808F1A3
:1001100010B5054C237833B9044B13B10448AFF341
:1001200000800123237010BD200200200000000089
:1001300020DA000808B5034B1BB103490348AFF3AD
:10014000008008BD000000002402002020DA000822
:1001500081F0004102E000BF83F0004330B54FEA78
:1001600041044FEA430594EA050F08BF90EA020FE5
:100170001FBF54EA000C55EA020C7FEA645C7FEA78
:10018000655C00F0E2804FEA5454D4EB5555B8BF9B
:100190006D420CDD2C4480EA020281EA030382EA0C
:1001A000000083EA010180EA020281EA0303362D9E
:1001B00088BF30BD11F0004F4FEA01314FF4801C71
:1001C0004CEA113102D0404261EB410113F0004F83
:1001D0004FEA03334CEA133302D0524263EB43033A
:1001E00094EA050F00F0A780A4F10104D5F1200ED8
:1001F0000DDB02FA0EFC22FA05F2801841F1000133
:1002000003FA0EF2801843FA05F359410EE0A5F106
:1002100020050EF1200E012A03FA0EFC28BF4CF037
:10022000020C43FA05F3C01851EBE37101F00045ED
:1002300007D54FF0000EDCF1000C7EEB00006EEBFA
:100240000101B1F5801F1BD3B1F5001F0CD3490884
:100250005FEA30004FEA3C0C04F101044FEA4452DB
:1002600012F5800F80F09A80BCF1004F08BF5FEA62
:10027000500C50F1000041EB045141EA050130BD42
:100280005FEA4C0C404141EB0101013C28BFB1F554
:10029000801FE9D291F0000F04BF01460020B1FA9F
:1002A00081F308BF2033A3F10B03B3F120020CDA72
:1002B0000C3208DD02F1140CC2F10C0201FA0CF050
:1002C00021FA02F10CE002F11402D8BFC2F1200CB5
:1002D00001FA02F120FA0CFCDCBF41EA0C0190406B
:1002E000E41AA2BF01EB0451294330BD6FEA0404B4
:1002F0001F3C1CDA0C340EDC04F11404C4F120029F
:1003000020FA04F001FA02F340EA030021FA04F3B0
:1003100045EA030130BDC4F10C04C4F1200220FA07
:1003200002F001FA04F340EA0300294630BD21FA45
:1003300004F0294630BD94F0000F83F4801306BF0B
:1003400081F480110134013D4EE77FEA645C18BFFF
:100350007FEA655C29D094EA050F08BF90EA020F96
:1003600005D054EA000C04BF1946104630BD91EA8E
:10037000030F1EBF0021002030BD5FEA545C05D191
:100380004000494128BF41F0004130BD14F58004D0
:100390003CBF01F5801130BD01F0004545F0FE4144
:1003A00041F470014FF0000030BD7FEA645C1ABF79
:1003B000194610467FEA655C1CBF0B46024650EAB0
:1003C000013406BF52EA033591EA030F41F40021DC
:1003D00030BD00BF90F0000F04BF0021704730B562
:1003E0004FF4806404F132044FF000054FF0000137
:1003F00050E700BF90F0000F04BF0021704730B5F8
:100400004FF4806404F1320410F0004548BF4042CC
:100410004FF000013EE700BF42004FEAE2014FEA21
:1004200031014FEA02701FBF12F07F4393F07F4FFC
:1004300081F06051704732F07F4208BF704793F0FF
:100440007F4F04BF41F40021704730B54FF4607412
:1004500001F0004521F000411CE700BF50EA010215
:1004600008BF704730B54FF000050AE050EA0102BE
:1004700008BF704730B511F0004502D5404261EB2E
:1004800041014FF4806404F132045FEA915C3FF46F
:10049000D8AE4FF003025FEADC0C18BF03325FEA0C
:1004A000DC0C18BF033202EBDC02C2F1200300FABD
:1004B00003FC20FA02F001FA03FE40EA0E0021FAE2
:1004C00002F11444BDE600BF70B54FF0FF0C4CF4D0
:1004D000E06C1CEA11541DBF1CEA135594EA0C0F82
:1004E00095EA0C0F00F0DEF82C4481EA030621EABD
:1004F0004C5123EA4C5350EA013518BF52EA0335F8
:1005000041F4801143F4801338D0A0FB02CE4FF0A9
:100510000005E1FB02E506F00042E0FB03E54FF0D9
:100520000006E1FB03569CF0000F18BF4EF0010ED1
:10053000A4F1FF04B6F5007F64F5407404D25FEACD
:100540004E0E6D4146EB060642EAC62141EA555180
:100550004FEAC52040EA5E504FEACE2EB4F1FD0CC2
:1005600088BFBCF5E06F1ED8BEF1004F08BF5FEA40
:10057000500E50F1000041EB045170BD06F00046F2
:1005800046EA010140EA020081EA0301B4EB5C049F
:10059000C2BFD4EB0C0541EA045170BD41F4801197
:1005A0004FF0000E013C00F3AB8014F1360FDEBFBC
:1005B000002001F0004170BDC4F10004203C35DA98
:1005C0000C341BDC04F11404C4F1200500FA05F31B
:1005D00020FA04F001FA05F240EA020001F00042BC
:1005E00021F0004110EBD37021FA04F642EB060132
:1005F0005EEA430E08BF20EAD37070BDC4F10C045C
:10060000C4F1200500FA04F320FA05F001FA04F21F
:1006100040EA020001F0004110EBD37041F100010B
:100620005EEA430E08BF20EAD37070BDC4F1200516
:1006300000FA05F24EEA020E20FA04F301FA05F27E
:1006400043EA020321FA04F001F0004121FA04F226
:1006500020EA020000EBD3705EEA430E08BF20EAF6
:10066000D37070BD94F0000F0FD101F00046400030
:1006700041EB010111F4801F08BF013CF7D041EAB2
:10068000060195F0000F18BF704703F000465200B6
:1006900043EB030313F4801F08BF013DF7D043EA87
:1006A0000603704794EA0C0F0CEA135518BF95EA3D
:1006B0000C0F0CD050EA410618BF52EA4306D1D1C4
:1006C00081EA030101F000414FF0000070BD50EAE3
:1006D000410606BF1046194652EA430619D094EA6D
:1006E0000C0F02D150EA013613D195EA0C0F05D157
:1006F00052EA03361CBF104619460AD181EA0301AB
:1007000001F0004141F0FE4141F470014FF0000062
:1007100070BD41F0FE4141F4780170BD70B54FF0FD
:10072000FF0C4CF4E06C1CEA11541DBF1CEA13557D
:1007300094EA0C0F95EA0C0F00F0A7F8A4EB05045F
:1007400081EA030E52EA03354FEA013100F0888056
:100750004FEA03334FF0805545EA131343EA12631F
:100760004FEA022245EA111545EA10654FEA0026D4
:100770000EF000419D4208BF964244F1FD0404F58D
:10078000407402D25B084FEA3202B61A65EB0305E9
:100790005B084FEA32024FF480104FF4002CB6EBA6
:1007A000020E75EB030E22BFB61A754640EA0C0026
:1007B0005B084FEA3202B6EB020E75EB030E22BF66
:1007C000B61A754640EA5C005B084FEA3202B6EBA7
:1007D000020E75EB030E22BFB61A754640EA9C0066
:1007E0005B084FEA3202B6EB020E75EB030E22BF36
:1007F000B61A754640EADC0055EA060E18D04FEAF4
:10080000051545EA16754FEA06164FEAC30343EA93
:1008100052734FEAC2025FEA1C1CC0D111F4801F60
:100820000BD141EA00014FF000004FF0004CB6E759
:1008300011F4801F04BF01430020B4F1FD0C88BFF8
:10084000BCF5E06F3FF6AFAEB5EB030C04BFB6EB03
:10085000020C5FEA500C50F1000041EB045170BDF6
:100860000EF0004E4EEA113114EB5C04C2BFD4EB23
:100870000C0541EA045170BD41F480114FF0000EA7
:10088000013C90E645EA060E8DE60CEA135594EA23
:100890000C0F08BF95EA0C0F3FF43BAF94EA0C0F26
:1008A0000AD150EA01347FF434AF95EA0C0F7FF49B
:1008B00025AF104619462CE795EA0C0F06D152EAEF
:1008C00003353FF4FDAE1046194622E750EA4106D3
:1008D00018BF52EA43067FF4C5AE50EA41047FF4E4
:1008E0000DAF52EA43057FF4EBAE12E74FF0FF3C49
:1008F00006E000BF4FF0010C02E000BF4FF0010C1A
:100900004DF804CD4FEA410C7FEA6C5C4FEA430C92
:1009100018BF7FEA6C5C1BD001B050EA410C0CBFE1
:1009200052EA430C91EA030F02BF90EA020F002043
:10093000704710F1000F91EA030F58BF994208BFAA
:1009400090422CBFD8176FEAE37040F00100704767
:100950004FEA410C7FEA6C5C02D150EA013C07D1BE
:100960004FEA430C7FEA6C5CD6D152EA033CD3D009
:100970005DF8040B704700BF8446104662468C4603
:100980001946634600E000BF01B5FFF7B7FF002836
:1009900048BF10F1000F01BD4DF808EDFFF7F4FF5F
:1009A0000CBF012000205DF808FB00BF4DF808EDEA
:1009B000FFF7EAFF34BF012000205DF808FB00BF0D
:1009C0004DF808EDFFF7E0FF94BF012000205DF82F
:1009D00008FB00BF4DF808EDFFF7CEFF94BF0120E4
:1009E00000205DF808FB00BF4DF808EDFFF7C4FFDD
:1009F00034BF012000205DF808FB00BF4FEA410C26
:100A00007FEA6C5C02D150EA013C0AD14FEA430C08
:100A10007FEA6C5C02D152EA033C02D14FF0000045
:100A200070474FF0010070474FEA410212F5001283
:100A300015D211D56FF47873B3EB625212D94FEA25
:100A4000C12343F0004343EA505311F0004F23FA0F
:100A500002F018BF404270474FF00000704750EA64
:100A6000013005D111F0004008BF6FF00040704721
:100A70004FF00000704700BF4FEA4102B2F1E0437F
:100A800024BFB3F5001CDCF1FE5C0DD901F0004C75
:100A90004FEAC0024CEA5070B2F1004F40EB8300C5
:100AA00008BF20F00100704711F0804F21D113F1F1
:100AB0003872BCBF01F00040704741F480114FEA2A
:100AC0005252C2F11802C2F1200C10FA0CF320FAB3
:100AD00002F018BF40F001004FEAC1234FEAD323D0
:100AE00003FA0CFC40EA0C0023FA02F34FEA43033A
:100AF000CCE77FEA625307D150EA01331EBF4FF0C3
:100B0000FE4040F44000704701F0004040F0FE40DD
:100B100040F40000704700BF80F0004002E000BFDA
:100B200081F0004142001FBF5FEA410392EA030FD8
:100B30007FEA226C7FEA236C6AD04FEA1262D2EB22
:100B40001363C1BFD218414048404140B8BF5B4227
:100B5000192B88BF704710F0004F40F4000020F0C0
:100B60007F4018BF404211F0004F41F4000121F0D6
:100B70007F4118BF494292EA030F3FD0A2F1010220
:100B800041FA03FC10EB0C00C3F1200301FA03F15E
:100B900000F0004302D5494260EB4000B0F5000F81
:100BA00013D3B0F1807F06D340084FEA310102F140
:100BB0000102FE2A51D2B1F1004F40EBC25008BFF2
:100BC00020F0010040EA03007047490040EB0000BC
:100BD000013A28BFB0F5000FEDD2B0FA80FCACF1BD
:100BE000080CB2EB0C0200FA0CF0AABF00EBC250EA
:100BF00052421843BCBFD0401843704792F0000FD8
:100C000081F4000106BF80F400000132013BB5E72A
:100C10004FEA41037FEA226C18BF7FEA236C21D0A0
:100C200092EA030F04D092F0000F08BF0846704705
:100C300090EA010F1CBF0020704712F07F4F04D1D3
:100C4000400028BF40F00040704712F100723CBFE6
:100C500000F50000704700F0004343F0FE4040F410
:100C6000000070477FEA226216BF08467FEA2363CE
:100C70000146420206BF5FEA412390EA010F40F4B9
:100C8000800070474FF0000304E000BF10F0004305
:100C900048BF40425FEA000C08BF704743F09643EC
:100CA00001464FF000001CE050EA010208BF704707
:100CB0004FF000030AE000BF50EA010208BF70478E
:100CC00011F0004302D5404261EB41015FEA010CA3
:100CD00002BF84460146002043F0B64308BFA3F19B
:100CE0008053A3F50003BCFA8CF2083AA3EBC2537D
:100CF00010DB01FA02FC634400FA02FCC2F120029C
:100D0000BCF1004F20FA02F243EB020008BF20F0D2
:100D10000100704702F1200201FA02FCC2F1200238
:100D200050EA4C0021FA02F243EB020008BF20EA2D
:100D3000DC7070474FF0FF0C1CEAD0521EBF1CEA5B
:100D4000D15392EA0C0F93EA0C0F6FD01A4480EA49
:100D5000010C400218BF5FEA41211ED04FF0006332
:100D600043EA501043EA5111A0FB01310CF000405E
:100D7000B1F5000F3EBF490041EAD3715B0040EA84
:100D8000010062F17F02FD2A1DD8B3F1004F40EB54
:100D9000C25008BF20F00100704790F0000F0CF027
:100DA000004C08BF49024CEA502040EA51207F3AEB
:100DB000C2BFD2F1FF0340EAC250704740F40000C6
:100DC0004FF00003013A5DDC12F1190FDCBF00F0B7
:100DD00000407047C2F10002410021FA02F1C2F165
:100DE000200200FA02FC5FEA310040F1000053EA01
:100DF0004C0308BF20EADC70704792F0000F00F04F
:100E0000004C02BF400010F4000F013AF9D040EA54
:100E10000C0093F0000F01F0004C02BF490011F4E8
:100E2000000F013BF9D041EA0C018FE70CEAD153E6
:100E300092EA0C0F18BF93EA0C0F0AD030F0004C66
:100E400018BF31F0004CD8D180EA010000F000401A
:100E5000704790F0000F17BF90F0004F084691F0D8
:100E6000000F91F0004F14D092EA0C0F01D1420212
:100E70000FD193EA0C0F03D14B0218BF084608D1DB
:100E800080EA010000F0004040F0FE4040F4000025
:100E9000704740F0FE4040F4400070474FF0FF0CB8
:100EA0001CEAD0521EBF1CEAD15392EA0C0F93EAFF
:100EB0000C0F69D0A2EB030280EA010C49024FEA51
:100EC000402037D04FF0805343EA111143EA10130A
:100ED0000CF000408B4238BF5B0042F17D024FF4C2
:100EE000000C8B4224BF5B1A40EA0C00B3EB510F9D
:100EF00024BFA3EB510340EA5C00B3EB910F24BF86
:100F0000A3EB910340EA9C00B3EBD10F24BFA3EB0A
:100F1000D10340EADC001B0118BF5FEA1C1CE0D1D2
:100F2000FD2A3FF650AF8B4240EBC25008BF20F085
:100F3000010070470CF0004C4CEA50207F32C2BFD9
:100F4000D2F1FF0340EAC250704740F400004FF076
:100F50000003013A37E792F0000F00F0004C02BFA7
:100F6000400010F4000F013AF9D040EA0C0093F071
:100F7000000F01F0004C02BF490011F4000F013BCB
:100F8000F9D041EA0C0195E70CEAD15392EA0C0F33
:100F900008D142027FF47DAF93EA0C0F7FF470AF6B
:100FA000084676E793EA0C0F04D14B023FF44CAFAE
:100FB00008466EE730F0004C18BF31F0004CCAD143
:100FC00030F000427FF45CAF31F000437FF43CAF7F
:100FD0005FE700BF4FF0FF3C06E000BF4FF0010CA1
:100FE00002E000BF4FF0010C4DF804CD4FEA400283
:100FF0004FEA41037FEA226C18BF7FEA236C11D0CD
:1010000001B052EA530C18BF90EA010F58BFB2EB7F
:10101000030088BFC81738BF6FEAE17018BF40F0FF
:10102000010070477FEA226C02D15FEA402C05D1B3
:101030007FEA236CE4D15FEA412CE1D05DF8040B38
:10104000704700BF844608466146FFE70FB5FFF7CB
:10105000C9FF002848BF10F1000F0FBD4DF808ED83
:10106000FFF7F4FF0CBF012000205DF808FB00BF74
:101070004DF808EDFFF7EAFF34BF012000205DF8CE
:1010800008FB00BF4DF808EDFFF7E0FF94BF01201B
:1010900000205DF808FB00BF4DF808EDFFF7D2FF18
:1010A00094BF012000205DF808FB00BF4DF808ED5B
:1010B000FFF7C8FF34BF012000205DF808FB00BF28
:1010C00042000ED2B2F1FE4F0BD34FF09E03B3EBB2
:1010D000126209D44FEA002343F0004323FA02F0DE
:1010E00070474FF00000704712F1610F01D14202CA
:1010F00002D14FF0FF3070474FF00000704700BF43
:10110000B0B584B000AF07F1080484E803003946A5
:1011100081E80C00BB683A6811461846FFF700FDED
:1011200003461C46BB683A6811461846FFF7F8FCB0
:10113000034619462046FFF7FDFD03461C46FB68A3
:101140007A6811461846FFF7EBFC03461D46FB681C
:101150007A6811461846FFF7E3FC0346194628460D
:10116000FFF7E8FD034619462046FFF7DBFC034680
:101170001846FFF751F902460B46104619460BF088
:10118000E1F802460B4610461946FFF775FC034688
:1011900018461037BD46B0BD2DE9B04384B000AF4E
:1011A000F860B9607A60B968B868FFF7C3FD0346B4
:1011B0001C4679687868FFF7BDFD0346194620464E
:1011C000FFF7B0FC03461C46F968F868FFF7B2FD6C
:1011D000034619462046FFF7A3FC03461846FFF7CF
:1011E0001BF904460D46B868FFF716F902460B4690
:1011F000FEF7B4FF02460B46904699467868FFF723
:101200000BF902460B4640464946FFF75DF9024698
:101210000B4620462946FFF781FA02460B46104648
:1012200019460BF067F802460B4610461946FFF7C1
:1012300023FC034618461037BD46BDE8B0830000C6
:101240002DE9F04387B000AF3B4600221A605A6098
:101250009A602D4B3B602C4B7B602B4BBB602B4B28
:101260001B78002B19D1294B1B7A002B04D1274B5B
:101270005B68274A136010E0244B1B7A012B04D1D2
:10128000234B1B68224A136007E0204B1B7A022B7A
:1012900003D11F4B1B681E4A13601C4B1B7C012B88
:1012A00019D11A4B1B7E002B04D1184B5B69184ACD
:1012B000536010E0154B1B7E012B04D1144B5B686F
:1012C000134A536007E0114B1B7E022B03D1104BD6
:1012D0005B680F4A53600D4B93F82030022B22D1EC
:1012E0000A4B93F82830002B04D1084B5B6A084A5C
:1012F000936018E0054B93F82830012B0AD1044B7A
:101300009B68034A93600EE0DB0F4940A80400206D
:10131000F0040020A84B93F82830022B03D1A74BF0
:101320009B68A64A9360A54B1B68A5491846FFF722
:10133000B5FD03461A46A14B1A60A04B5B68A04955
:101340001846FFF7ABFD03461A469C4B5A609B4B71
:101350009B689B491846FFF7A1FD03461A46974B29
:101360009A603B681846FFF757F804460D46934BC2
:101370001B681846FFF750F88DA3D3E90023FFF749
:10138000A3F802460B46104619464FF000028D4B5B
:10139000FFF7C4F902460B4620462946FEF7DEFE5B
:1013A00002460B4610461946FFF766FB03463B60B4
:1013B0007B681846FFF730F804460D467F4B5B68A4
:1013C0001846FFF729F87AA3D3E90023FFF77CF842
:1013D00002460B46104619464FF00002794BFFF7C4
:1013E0009DF902460B4620462946FEF7B7FE024607
:1013F0000B4610461946FFF73FFB03467B60BB6870
:101400001846FFF709F804460D466C4B9B681846D2
:10141000FFF702F866A3D3E90023FFF755F8024669
:101420000B46104619464FF00002664BFFF776F95F
:1014300002460B4620462946FEF790FE02460B4622
:1014400010461946FFF718FB0346BB605E4B1B684E
:101450005E4A13605E4B1B685C4A53605B4B1B68C3
:101460005C4A126811461846FFF75CFB03461A46B1
:10147000564B9A60554B5B68574A1268114618469E
:10148000FFF750FB03461A46504BDA604F4B1B6880
:10149000504A126811461846FFF744FB03461A46A5
:1014A0004E4B1B6819461046FFF73CFB03461A4695
:1014B000464B1A61454B5B68474A1268114618460D
:1014C000FFF730FB03461A46454B1B68194610468A
:1014D000FFF728FB03461A463C4B5A613B4B3B49FE
:1014E00008330CCB03C9FFF70BFE03463D4A1360DC
:1014F0003D4B1B684FF080411846FFF7CFFC034679
:101500001A463A4B1A603A4B1B684FF08041184616
:10151000FFF7C4FC03461A46364B1A60364B1B686D
:101520004FF080411846FFF7B9FC03461A46334B8B
:101530001A602D4B1B684FF080411846FFF7AEFC38
:1015400003461A462E4B1A60294B1B684FF0804108
:101550001846FFF7A3FC03461A462A4B1A60234B92
:101560001B681846FEF758FF04460D463B681846B0
:10157000FEF752FF02460B46104619460AF006FFD8
:1015800002460B4620462946FEF79EFF02460B46C2
:1015900010461946FFF770FA03460C4A9365134B41
:1015A0001B681846FEF738FF04462DE0AFF30080B5
:1015B0001F85EB51B81E0940A8040020F00400204C
:1015C00000007A44008066403C0200203404002081
:1015D0004002002004000020080000200C00002031
:1015E0004402002048020020100000205002002089
:1015F0002800002054020020380000206002002053
:10160000580200205C0200200D463B681846FEF799
:1016100003FF02460B46104619460AF001FF024638
:101620000B4620462946FEF74FFF02460B46104662
:101630001946FFF721FA0346BB4AD365BB4B1B682B
:101640001846FEF7E9FE04460D463B681846FEF7CD
:10165000E3FE02460B46104619460AF097FE024684
:101660000B4620462946FEF72FFF02460B46104642
:101670001946FFF701FA0346AB4A1365AB4B1B68EB
:101680001846FEF7C9FE04460D463B681846FEF7AD
:10169000C3FE02460B46104619460AF0C1FE02463A
:1016A0000B4620462946FEF70FFF02460B46104622
:1016B0001946FFF7E1F903469B4A53659A4B1B6DA8
:1016C0001846FEF7A9FE04460D46994B1B681846BE
:1016D000FEF7A2FE804689463E687B68954A1268FE
:1016E00011461846FFF71CFA034619463046FFF725
:1016F00019FA03461846FEF78FFE02460B461046BF
:1017000019460AF043FE02460B4640464946FEF79C
:10171000DBFE02460B4620462946FEF71FFD024629
:101720000B4610461946FFF7A7F903467E4A936415
:101730007D4B5B6D1846FEF76FFE04460D467C4BF5
:101740001B681846FEF768FE804689463E687B683F
:10175000784A126811461846FFF7E2F9034619461F
:101760003046FFF7DFF903461846FEF755FE0246FE
:101770000B46104619460AF053FE02460B464046F9
:101780004946FEF7A1FE02460B4620462946FEF7D3
:10179000E5FC02460B4610461946FFF76DF9034675
:1017A000614AD364604B1B6D1846FEF735FE044654
:1017B0000D46614B1B681846FEF72EFE8046894693
:1017C0003E687B685B4A126811461846FFF7A8F925
:1017D000034619463046FFF7A5F903461846FEF7BB
:1017E0001BFE02460B46104619460AF0CFFD024684
:1017F0000B4640464946FEF767FE02460B4620462A
:101800002946FEF7ABFC02460B4610461946FFF789
:1018100033F90346444A1364434B5B6D1846FEF7A5
:10182000FBFD04460D46444B1B681846FEF7F4FDCD
:10183000804689463E687B683E4A126811461846D3
:10184000FFF76EF9034619463046FFF76BF903467A
:101850001846FEF7E1FD02460B46104619460AF00F
:10186000DFFD02460B4640464946FEF72DFE024686
:101870000B4620462946FEF771FC02460B461046F1
:101880001946FFF7F9F80346274A5364264B1B6CA9
:101890001846FEF7C1FD04460D46284B1B68184646
:1018A000FEF7BAFD804689463E687B68214A126889
:1018B00011461846FFF734F9034619463046FFF73C
:1018C00031F903461E46BB681A4A1268114618468B
:1018D000FFF726F9034619463046FFF723F903467A
:1018E0001846FEF799FD02460B46104619460AF0C7
:1018F0004DFD02460B4640464946FEF7E5FD0246D1
:101900000B4620462946FEF729FC02460B461046A8
:101910001946FFF7B1F80346034A9363024B5B6C29
:101920001846FEF779FD0BE034040020100000207B
:101930005402002000000020280000206002002047
:1019400004460D46AC4B1B681846FEF765FD804605
:1019500089463E687B68A94A126811461846FFF717
:10196000DFF8034619463046FFF7DCF803461E460B
:10197000BB68A24A126811461846FFF7D1F8034621
:1019800019463046FFF7CEF803461846FEF744FDE9
:1019900002460B46104619460AF042FD02460B4627
:1019A00040464946FEF790FD02460B462046294632
:1019B000FEF7D4FB02460B4610461946FFF75CF8CB
:1019C00003468F4AD3638E4B1B6C1846FEF724FDEB
:1019D00004460D468B4B1B681846FEF71DFD8046DE
:1019E00089463E687B68854A126811461846FFF7AB
:1019F00097F8034619463046FFF794F803461E460B
:101A0000BB687E4A126811461846FFF789F80346FC
:101A100019463046FFF786F803461846FEF7FCFCE9
:101A200002460B46104619460AF0B0FC02460B4629
:101A300040464946FEF748FD02460B4620462946E9
:101A4000FEF78CFB02460B4610461946FFF714F8CA
:101A500003466B4A13636A4B5B6C1846FEF7DCFC6B
:101A600004460D46674B1B681846FEF7D5FC8046BA
:101A700089463E687B68614A126811461846FFF73E
:101A80004FF8034619463046FFF74CF803461E460A
:101A9000BB685A4A126811461846FFF741F80346D8
:101AA00019463046FFF73EF803461846FEF7B4FCE9
:101AB00002460B46104619460AF0B2FC02460B4697
:101AC00040464946FEF700FD02460B4620462946A1
:101AD000FEF744FB02460B4610461946FEF7CCFFC4
:101AE0000346474A5363464B454958330CCB0831AC
:101AF00003C9FFF705FB3861434B1B68434A126873
:101B000019463869FFF748FB0346414A9364414B45
:101B10001B68414A126839691846FFF73DFB0446C5
:101B20003A4B1B68384A126839691846FFF734FB8C
:101B3000034619462046FEF7F5FF03461A46344B86
:101B4000DA642F4B9B6D1846FEF766FC04460D4683
:101B5000314B1B681846FEF75FFC804689463B68A0
:101B6000264A126811461846FEF7DAFF03461A465F
:101B7000274BDB6C19461046FEF7D4FF0346184688
:101B8000FEF74AFC02460B46104619460AF0FEFBD9
:101B900002460B4640464946FEF796FC02460B4677
:101BA00020462946FEF7DAFA02460B461046194649
:101BB000FEF762FF0346124A9361114BDB6D184634
:101BC000FEF72AFC04460D46134B1B681846FEF729
:101BD00023FC804689463B68084A1268114618462D
:101BE000FEF79EFF03461A46094BDB6C194610466A
:101BF000FEF798FF034611E060020020000000207D
:101C00003404002038000020500200204802002048
:101C10006005002018000020240000201846FEF770
:101C2000FBFB02460B46104619460AF0F9FB02463A
:101C30000B4640464946FEF747FC02460B46204607
:101C40002946FEF78BFA02460B4610461946FEF768
:101C500013FF0346A04AD3619F4B9F4910330CCB1F
:101C6000183103C9FFF74CFA03469C4A13609A4B9C
:101C7000994918330CCB03C9FFF742FA0346984A37
:101C80001360974B1B68974A1168974A1268184669
:101C9000FFF782FA0346954A53608F4B8E495833BB
:101CA0000CCB483103C9FFF72BFAF860904B1B6847
:101CB000904A1168FA681846FFF76EFA04468E4B90
:101CC0001B688E4A1268F9681846FFF765FA0346E2
:101CD00019462046FEF724FF03461A46834B1A6531
:101CE0007D4B9B6C1846FEF797FB04460D46814BD7
:101CF0001B681846FEF790FB804689463B68804A81
:101D0000126811461846FEF70BFF03461E467B6815
:101D10007B4A126811461846FEF702FF0346194631
:101D20003046FEF7FFFE03461A46704B1B6D194600
:101D30001046FEF7F7FE03461846FEF76DFB024617
:101D40000B46104619460AF021FB02460B46404658
:101D50004946FEF7B9FB02460B4620462946FEF7E8
:101D6000FDF902460B4610461946FEF785FE03466E
:101D7000594A1362584BDB6C1846FEF74DFB04467C
:101D80000D465C4B1B681846FEF746FB80468946AD
:101D90003B685B4A126811461846FEF7C1FE0346CF
:101DA0001E467B68564A126811461846FEF7B8FE72
:101DB000034619463046FEF7B5FE03461A464B4B1E
:101DC0001B6D19461046FEF7ADFE03461846FEF79A
:101DD00023FB02460B46104619460AF021FB024639
:101DE0000B4640464946FEF76FFB02460B4620462F
:101DF0002946FEF7B3F902460B4610461946FEF790
:101E00003BFE0346344A5362334B334920330CCBF9
:101E1000183103C9FFF774F903463A4A13602E4B91
:101E20002D4948330CCB383103C9FFF769F9786184
:101E3000354B1B68354A126811461846FEF772FE8C
:101E4000034619467869FFF731F90346002B09D09C
:101E50002D4B1B682D4A126811461846FEF762FE8C
:101E600003467B612A4B1B682A4A12687969184627
:101E7000FFF792F90446244B1B68244A11687A69DB
:101E80001846FFF789F9034619462046FEF748FE33
:101E900003461A46154B5A650F4B9B6B1846FEF7C7
:101EA000BBFA04460D461B4B1B681846FEF7B4FAF6
:101EB000804689463B68124A126811461846FEF76A
:101EC0002FFE03461E467B680D4A126811461846CF
:101ED000FEF726FE03461FE0340400201400002015
:101EE0004C02002050020020240000206005002049
:101EF0001C0000202C00002058020020540200206A
:101F000000000020200000205C0200206002002071
:101F1000300000203C00002019463046FEF702FE4B
:101F200003461E46BB68A24A126811461846FEF7D1
:101F3000F7FD034619463046FEF7F4FD03461A4600
:101F40009C4B5B6D19461046FEF7ECFD03461846A8
:101F5000FEF762FA02460B46104619460AF016FAD8
:101F600002460B4640464946FEF7AEFA02460B468D
:101F700020462946FEF7F2F802460B46104619465F
:101F8000FEF77AFD03468C4A93628B4BDB6B184657
:101F9000FEF742FA04460D46884B1B681846FEF7CA
:101FA0003BFA804689463B68814A126811461846CA
:101FB000FEF7B6FD03461E467B687D4A1268114651
:101FC0001846FEF7ADFD034619463046FEF7AAFD5A
:101FD00003461E46BB68764A126811461846FEF74D
:101FE0009FFD034619463046FEF79CFD03461A4600
:101FF000704B5B6D19461046FEF794FD034618467C
:10200000FEF70AFA02460B46104619460AF008FA8D
:1020100002460B4640464946FEF756FA02460B4634
:1020200020462946FEF79AF802460B461046194606
:10203000FEF722FD0346604AD3625F4B5E492833B8
:102040000CCB203103C9FFF75BF803465C4A1360F1
:10205000594B9B6E5B4A126811461846FFF708F809
:102060000346002B03D0584B00225A7702E0564B10
:1020700001225A77504BDB6E544A126811461846BB
:10208000FEF7F6FF0346002B04D04F4B002283F8E7
:10209000512003E04C4B012283F85120464B1B6F2B
:1020A000474A126811461846FEF7E2FF0346002B26
:1020B00004D0454B002283F8852003E0424B0122E7
:1020C00083F88520404B1B683F4A526891B200223A
:1020D000184602F0A2FA3C4B9B683B4AD26891B288
:1020E0000022184602F099FA374B5B6B364A926B26
:1020F00091B20022184602F090FA334BDB6B324A61
:10210000126C91B20022184602F087FA2E4B9B6E99
:102110002D4AD26E91B20022184602F07EFA2A4B66
:102120001B6F294A526F91B20022184602F075FACD
:10213000274804F08BFE204B9B6E224A1268114602
:102140001846FEF78BFF0346002B02D11E4B0122DF
:102150001A77194BDB6E1D4A126811461846FEF7B6
:102160007DFF0346002B03D1174B012283F850203B
:10217000114B1B6F124A126811461846FEF76EFF8C
:102180000346002B03D1104B012283F88420114B0E
:10219000DB68002B07D00F4BDB69002B03D00D4B06
:1021A000DB6A002B1AD106210B4809F093FC22E0D0
:1021B0000000002060050020340400203C000020C6
:1021C00034000020140000208003002020000020A4
:1021D00038030020A804002038DA0008934BDB689D
:1021E000934A9361914BDB69914AD3648F4BDB6ACD
:1021F0008F4AC2F880308F4B1B78002B12D08D4B4A
:1022000000221A708A4B00221A77894B002283F829
:102210005020874B002283F884200621864809F04D
:1022200059FCFCE1854B9B6E854A126811461846A5
:10223000FEF728FF0346002B19D07D4B1B687C4A14
:10224000526891B20122184602F0E7F9784B9B6878
:10225000774AD26891B20122184602F0DEF9744B37
:1022600000221A770621774809F034FC23E0734BEB
:102270009B6E734A526811461846FEF70DFF0346DF
:10228000002B18D06A4B1B68694A526891B2012230
:10229000184602F0C2F9664B9B68654AD26891B253
:1022A0000122184602F0B9F9614B00221A77062183
:1022B000654809F00FFC614BDB6E614A926811467C
:1022C0001846FEF7DFFE0346002B1AD0584B5B6B17
:1022D000574A926B91B20122184602F09EF9544B74
:1022E000DB6B534A126C91B20122184602F095F949
:1022F0004F4B002283F850200621544809F0EAFB96
:1023000024E04E4BDB6E4E4AD26811461846FEF76B
:10231000C3FE0346002B19D0454B5B6B444A926BBE
:1023200091B20122184602F078F9414BDB6B404A2A
:10233000126C91B20122184602F06FF93C4B002258
:1023400083F850200621424809F0C4FB3B4B1B6F29
:102350003B4A126911461846FEF794FE0346002BCD
:102360001AD0334B9B6E324AD26E91B2012218467C
:1023700002F053F92E4B1B6F2D4A526F91B201227E
:10238000184602F04AF92A4B002283F884200621DD
:10239000304809F09FFB24E0284B1B6F284A526904
:1023A00011461846FEF778FE0346002B19D0204B45
:1023B0009B6E1F4AD26E91B20122184602F02DF98F
:1023C0001B4B1B6F1A4A526F91B20122184602F042
:1023D00024F9174B002283F8842006211E4809F0B7
:1023E00079FB134B5B7F002B3AD1144B9B6E1B4A3E
:1023F000126811461846FEF74FFE0346002B53D0D5
:102400000B4B00221A770A4B1B68094A526891B29B
:102410000122184602F001F9054B9B68044AD26874
:1024200091B20122184602F0F8F83DE0A80400201D
:10243000800300206702002040DA000834040020F6
:10244000D804002048DA000850DA000858DA0008FA
:1024500060DA000868DA000870DA0008140000206A
:102460008C4B5B7F012B1FD18B4B9B6E8B4A126871
:1024700011461846FEF706FE0346002B14D0854B86
:1024800000221A77834B1B68824A526891B201225C
:10249000184602F0C2F87F4B9B687E4AD26891B220
:1024A0000122184602F0B9F87A4B93F85130002B0C
:1024B00021D1794BDB6E7A4A126811461846FEF735
:1024C000EBFD0346002B3CD0724B002283F85020DA
:1024D000704B5B6B6F4A926B91B20122184602F00F
:1024E0009CF86C4BDB6B6B4A126C91B20122184664
:1024F00002F093F825E0674B93F85130012B20D17F
:10250000654BDB6E664A126811461846FEF7BAFD47
:102510000346002B15D05F4B002283F850205D4B03
:102520005B6B5C4A926B91B20122184602F075F81F
:10253000584BDB6B574A126C91B20122184602F0DD
:102540006CF8544B93F88530002B21D1524B1B6F04
:10255000544A126811461846FEF79EFD0346002BAA
:102560003CD04C4B002283F884204A4B9B6E494A56
:10257000D26E91B20122184602F04FF8454B1B6F04
:10258000444A526F91B20122184602F046F825E003
:10259000404B93F88530012B20D13F4B1B6F414AB4
:1025A000126811461846FEF76DFD0346002B15D044
:1025B000384B002283F88420364B9B6E354AD26E0E
:1025C00091B20122184602F028F8324B1B6F314AB3
:1025D000526F91B20122184602F01FF82D4B1B7F5B
:1025E00083F00103DBB2002B3FF405AE294B93F8D7
:1025F000503083F00103DBB2002B3FF4FCAD254BE0
:1026000093F8843083F00103DBB2002B3FF4F3AD89
:10261000254804F06DFC0621244809F05BFA1D4BA7
:102620001B681C4A526891B20022184601F0F5FF5F
:10263000184B9B68174AD26891B20022184601F0E5
:10264000ECFF144B5B6B134A926B91B2002218465D
:1026500001F0E3FF0F4BDB6B0E4A126C91B20022CC
:10266000184601F0DAFF0B4B9B6E0A4AD26E91B20C
:102670000022184601F0D1FF064B1B6F054A526F2E
:1026800091B20022184601F0C8FF00BF1C37BD46BA
:10269000BDE8F083800300203404002014000020F3
:1026A00020000020340000203803002040DA000819
:1026B00080B500AFAA4B01225A77A94B012283F8BB
:1026C0005120A74B012283F88520A54B0A225A618D
:1026D000A34B4FF4FA729A61A14B0A229A64A04B61
:1026E0004FF4FA72DA649E4B0A22DA679C4B4FF47D
:1026F000FA72C3F880209A4B1B68994A526891B2CB
:102700000022184601F089FF954B9B68944AD268D5
:1027100091B20022184601F080FF914B5B6B904A0A
:10272000926B91B20022184601F077FF8C4BDB6B65
:102730008B4A126C91B20022184601F06EFF884B52
:102740009B6E874AD26E91B20022184601F065FF57
:10275000834B1B6F824A526F91B20022184601F0E0
:102760005CFF804804F072FB7D4B01221A777C4BA2
:10277000012283F850207A4B012283F884204FF401
:102780000061794801F032FF0346002B18D1744BE9
:102790001B7F002B14D0724B00221A77704B1B68E2
:1027A0006F4A526891B20022184601F036FF6C4B16
:1027B0009B686B4AD26891B20022184601F02DFF47
:1027C0004FF48061684801F011FF0346002B1AD1D5
:1027D000634B93F85030002B15D0614B002283F8E7
:1027E00050205F4B5B6B5E4A926B91B200221846A1
:1027F00001F013FF5A4BDB6B594A126C91B2002265
:10280000184601F00AFF0421574801F0EFFE034685
:10281000002B1AD1524B93F88430002B15D0504B1B
:10282000002283F884204E4B9B6E4D4AD26E91B2AB
:102830000022184601F0F1FE494B1B6F484A526FC7
:1028400091B20022184601F0E8FE454B1B7F83F051
:102850000103DBB2002B92D0414B93F8503083F050
:102860000103DBB2002B8AD03D4B93F8843083F018
:102870000103DBB2002B82D04FF4FA7001F076F93D
:10288000374B00225A77364B002283F85120344BC5
:10289000002283F88520324B01221A77304B012227
:1028A00083F850202E4B012283F884204FF4487087
:1028B00001F05CF92A4B00221A77294B002283F899
:1028C0005020274B002283F88420254B1B68244A84
:1028D000526891B20122184601F09FFE204B9B687E
:1028E0001F4AD26891B20122184601F096FE1C4B95
:1028F0005B6B1B4A926B91B20122184601F08DFE70
:10290000174BDB6B164A126C91B20122184601F08C
:1029100084FE134B9B6E124AD26E91B2012218466E
:1029200001F07BFE0E4B1B6F0D4A526F91B20122DC
:10293000184601F072FE0B4804F0DAFA0B4B0C4A11
:102940009A660A4B0B4ADA66084B0B4A1A674FF431
:102950002F7001F00BF9024B1B68014A52680DE021
:102960008003002038030020000C014034040020C4
:10297000F19495423D0A6D42AE47F74191B2002273
:10298000184601F04AFE184B9B68174AD26891B26C
:102990000022184601F041FE134B5B6B124A926B0A
:1029A00091B20022184601F038FE0F4BDB6B0E4A45
:1029B000126C91B20022184601F02FFE0A4B9B6E5A
:1029C000094AD26E91B20022184601F026FE064B4B
:1029D0001B6F054A526F91B20022184601F01DFE8E
:1029E00000BF00BF80BD00BF8003002080B586B05F
:1029F00000AF01F059F800F02DFA00F099FB00F05B
:102A000087FA00F0C3FA08F003FD00F0F7FA00F0CF
:102A100041FB804B804A1A607E4B80225A607D4B7E
:102A20007D4A9A607B4B4022DA607A4B7B4A9A62FD
:102A3000784B00225A77774B00221A77754B0A227F
:102A40005A61744B4FF448729A61724B724A5A63DE
:102A5000704B20229A636F4B6F4ADA636D4B1022E2
:102A60001A646C4B6D4ADA656A4B002283F8512078
:102A7000684B002283F85020664B0A229A64654B0B
:102A80004FF44872DA64634B634A9A66614B0822DA
:102A9000DA66604B624A1A675E4B4FF400425A672F
:102AA0005C4B5E4AC3F890205A4B002283F8852085
:102AB000584B002283F88420564B0A22DA67554B84
:102AC0004FF44872C3F88020564B574A9A66554BCC
:102AD000564ADA66534B564A1A674E4B4FF07C52B1
:102AE0005A624C4B4FF07C529A654A4B4FF07C52E5
:102AF000C3F88C2001220221474801F08EFD0122FB
:102B00000121454801F089FD4FF47A7001F02EF85B
:102B1000484B00221A70474B00225A70454B002246
:102B20009A70454B454A5A60434B4FF000021A6079
:102B3000414B424ADA60404B4FF000029A603E4BF4
:102B40003E4A5A613C4B4FF000021A613C4B4FF435
:102B50004872DA603A4B4FF44872DA61384B4FF4FE
:102B60004872DA624FF40051364801F06EFD364B80
:102B70001B78002B09D0FFF79BFD0621334808F096
:102B8000A9FF314B00221A7051E1314B1B78002B09
:102B900009D0FEF755FB06212C4808F09BFF2C4B73
:102BA00000221A7043E12B4B1B78002B00F03F8171
:102BB0000023FB75FB7D5A1CFA751A46264B5421DF
:102BC000995400F0C9FF38613B69190EFB7D5A1C0E
:102BD000FA751A46C9B2204B99543B69190CFB7D12
:102BE0005A1CFA751A46C9B21B4B99543B69190A0B
:102BF000FB7D5A1CFA751A46C9B2174B9954FB7DD6
:102C00005A1CFA751A463B69D9B2134B99540023E2
:102C1000BB7501E180030020000C01400000B841B9
:102C20000008014034040020F19495423D0A6D42B1
:102C3000AE47F7411C040020D804002000004843A0
:102C4000A8040020001001406402002040DA0008BF
:102C50006502002066020020FC040020FB7D5A1C57
:102C6000FA751A46744B4D219954FB7D5A1CFA751E
:102C70001946714ABB7D5354704B1B687049184606
:102C8000FEF758F803461846FEF71AFA0346FB60AB
:102C9000FB68190EFB7D5A1CFA751A46C9B2664BC1
:102CA0009954FB68190CFB7D5A1CFA751A46C9B277
:102CB000614B9954FB68190AFB7D5A1CFA751A4638
:102CC000C9B25D4B9954FB7D5A1CFA751A46FB68D4
:102CD000D9B2594B99545B4B9B6E59491846FEF734
:102CE00029F803461846FEF7EBF90346BB60BB68BC
:102CF000190EFB7D5A1CFA751A46C9B24E4B9954EF
:102D0000BB68190CFB7D5A1CFA751A46C9B24A4BAE
:102D10009954BB68190AFB7D5A1CFA751A46C9B248
:102D2000454B9954FB7D5A1CFA751A46BB68D9B2BB
:102D3000414B9954BA7DFB7D591CF975184642499F
:102D400013010B4408331A783B4B1A54BB7D3F4A9E
:102D500052F833303A491846FDF7ECFF034618465F
:102D6000FEF7AEF903467B607B68190EFB7D5A1CAB
:102D7000FA751A46C9B2304B99547B68190CFB7D21
:102D80005A1CFA751A46C9B22B4B99547B68190A1A
:102D9000FB7D5A1CFA751A46C9B2274B9954FB7D24
:102DA0005A1CFA751A467B68D9B2234B9954BB7DDD
:102DB000264ADB0013445B6821491846FDF7BAFF39
:102DC00003461846FEF77CF903463B603B68190E44
:102DD000FB7D5A1CFA751A46C9B2174B99543B68C9
:102DE000190CFB7D5A1CFA751A46C9B2124B99543C
:102DF0003B68190AFB7D5A1CFA751A46C9B20E4B7C
:102E00009954FB7D5A1CFA751A463B68D9B20A4B95
:102E10009954BB7D0133BB75BB7D022B7FF61EAF82
:102E20003B21054808F056FE094B00221A70142079
:102E300000F09CFE96E600BFFC040020F004002099
:102E400000007A4434040020A8040020D8040020A4
:102E50006602002080B594B000AF07F12803282255
:102E60000021184609F014FA07F1140300221A6031
:102E70005A609A60DA601A613B1D00221A605A603B
:102E80009A60DA600123BB624FF48033FB62002357
:102E90003B630123BB6302237B644FF48033BB6439
:102EA0004FF4E013FB6407F12803184603F06CF9B4
:102EB0000346002B01D000F05BFC0F237B61022353
:102EC000BB610023FB614FF480633B6200237B62A4
:102ED00007F114030221184603F0D8FB0346002B28
:102EE00001D000F045FC12237B604FF40043FB60EF
:102EF00000233B613B1D184603F024FD0346002BD5
:102F000001D000F035FC00BF5037BD4680BD000049
:102F100080B584B000AF3B1D00221A605A609A60F1
:102F2000184B194A1A60174B00229A60154B002261
:102F30001A73144B00221A75124B4FF46022DA6197
:102F4000104B00225A600F4B01221A610D4800F00D
:102F500031FE0346002B01D000F00AFC00237B6009
:102F60000123BB600023FB603B1D1946054800F0B0
:102F7000F9FE0346002B01D000F0FAFB00BF10372A
:102F8000BD4680BD680200200024014080B500AF2E
:102F9000184B194A1A60174B4FF482725A60154B3E
:102FA0004FF480629A60134B0022DA60114B0022CA
:102FB0001A61104B00225A610E4B4FF400729A6155
:102FC0000C4B1822DA610B4B00221A62094B0022CB
:102FD0005A62084B00229A62064B0A22DA620548BE
:102FE00003F066FD0346002B01D000F0C1FB00BFDB
:102FF00080BD00BF980200200030014080B586B03F
:1030000000AF07F1080300221A605A609A60DA6084
:103010003B4600221A605A601C4B1D4A1A601B4B2B
:1030200047225A60194B00229A60184B0922DA6035
:10303000164B00221A61154B00229A61134803F0C7
:10304000B6FE0346002B01D000F092FB4FF48053F4
:10305000BB6007F1080319460C4804F07FF80346EB
:10306000002B01D000F084FB00233B6000237B6039
:103070003B461946054804F055FA0346002B01D09B
:1030800000F076FB00BF1837BD4680BDF00200207F
:103090000004004080B586B000AF07F108030022AD
:1030A0001A605A609A60DA603B4600221A605A60E1
:1030B0001D4B1E4A1A601C4B47225A601A4B0022B5
:1030C0009A60194B40F2E732DA60174B00221A611E
:1030D000154B00229A61144803F069FE0346002B49
:1030E00001D000F045FB4FF48053BB6007F10803AB
:1030F00019460D4804F032F80346002B01D000F0C9
:1031000037FB00233B6000237B603B4619460648A3
:1031100004F008FA0346002B01D000F029FB00BFA1
:103120001837BD4680BD00BF3803002000080040AE
:1031300080B588B000AF07F1100300221A605A6012
:103140009A60DA605A4B9B69594A43F010039361C5
:10315000574B9B6903F01003FB60FB68544B9B6962
:10316000534A43F020039361514B9B6903F02003C2
:10317000BB60BB684E4B9B694D4A43F004039361AF
:103180004B4B9B6903F004037B607B68484B9B6956
:10319000474A43F008039361454B9B6903F00803DA
:1031A0003B603B6800224FF40051424801F035FA81
:1031B0000022FB21404801F030FA00224FF4004188
:1031C0003E4801F02AFA4FF400533B6101237B6132
:1031D0000023BB610223FB6107F110031946354848
:1031E00001F080F8FB233B6101237B610023BB617D
:1031F0000223FB6107F1100319462F4801F072F812
:1032000045F604433B6100237B610123BB6107F169
:1032100010031946284801F065F84FF420433B613C
:10322000274B7B610123BB6107F11003194622483C
:1032300001F058F84FF480733B6100237B61012358
:10324000BB6107F1100319461C4801F04BF84FF41D
:1032500000733B611A4B7B610123BB6107F11003D3
:103260001946164801F03EF84FF400433B61012334
:103270007B610023BB610223FB6107F11003194648
:103280000E4801F02FF800220121172000F07BFFEB
:10329000172000F094FF00220121282000F073FF86
:1032A000282000F08CFF00BF2037BD4680BD00BF46
:1032B0000010024000100140000C014000080140D5
:1032C0000000211080B584B000AF78607B686C4A44
:1032D000934240F0D0800023FB73C8E0FB7B694A37
:1032E000342101FB03F313441C331B78002B00F043
:1032F000BB80FB7B634A342101FB03F3134410338F
:103300001A68FB7B5F49342000FB03F30B44143342
:103310001B68013B9A4247D3FB7B5A4A342101FB8D
:1033200003F313441D331B78002B14D1FB7B554A48
:10333000342101FB03F313441A68FB7B5149342009
:1033400000FB03F30B4404331B689BB21946104681
:1033500001F07BF91EE0FB7B4A4A342101FB03F3B9
:1033600013441D331B78012B14D1FB7B454A3421B8
:1033700001FB03F3134408331A68FB7B41493420F3
:1033800000FB03F30B440C331B689BB21946104639
:1033900001F05BF9FB7B3B4A342101FB03F313444F
:1033A000103300221A600FE0FB7B3649342203FB06
:1033B00002F20A441032126801323249342000FB12
:1033C00003F30B4410331A60FB7B2E4A342101FBBC
:1033D00003F3134410331A68FB7B2A49342000FBA3
:1033E00003F30B4418331B689A423DD3FB7B254AF9
:1033F000342101FB03F313441D331B78002B14D13C
:10340000FB7B204A342101FB03F313441868FB7B48
:103410001C4A342101FB03F3134404331B689BB2A1
:103420000022194601F0F9F81EE0FB7B154A342111
:1034300001FB03F313441D331B78012B14D1FB7BD9
:10344000104A342101FB03F3134408331868FB7B53
:103450000C4A342101FB03F313440C331B689BB269
:103460000022194601F0D9F8FB7B0133FB73FB7B8B
:10347000022B7FF633AF00BF1037BD4680BD00BFC3
:1034800038030020800300202DE9B04382B000AF54
:103490000346FB80FB88042B00F05B81FB88B3F5BF
:1034A000007F6DD14FF48071AC4801F09FF8034666
:1034B000002B32D1AA4B5B7F012B40F04A81A94BF4
:1034C0009B6E1846FCF7A8FF04460D46A44B5B6AAA
:1034D0001846FCF7A1FF80468946A14B9B6A184617
:1034E000FCF79AFF4FF000029F4BFCF7EDFF0246FE
:1034F0000B4640464946FDF711F902460B46204669
:103500002946FCF729FE02460B4610461946FDF7F0
:10351000B3FA0346934A93661BE1914B5B7F002B02
:1035200040F017818F4B9B6E1846FCF775FF0446E1
:103530000D468B4B5B6A1846FCF76EFF804689464A
:10354000874B9B6A1846FCF767FF4FF00002864BDB
:10355000FCF7BAFF02460B4640464946FDF7DEF847
:1035600002460B4620462946FCF7F8FD02460B466C
:1035700010461946FDF780FA03467A4A9366E8E05A
:10358000FB88B3F5004F6FD14FF48041774801F0CD
:103590002DF80346002B33D1714B93F85130012B9A
:1035A00040F0D7806F4BDB6E1846FCF735FF0446C2
:1035B0000D466B4B9B6D1846FCF72EFF80468946E7
:1035C000674BDB6D1846FCF727FF4FF00002664B98
:1035D000FCF77AFF02460B4640464946FDF79EF847
:1035E00002460B4620462946FCF7B6FD02460B462E
:1035F00010461946FDF740FA03465A4AD366A8E03A
:10360000574B93F85130002B40F0A380554BDB6EA5
:103610001846FCF701FF04460D46514B9B6D1846BA
:10362000FCF7FAFE804689464D4BDB6D1846FCF7E9
:10363000F3FE4FF000024C4BFCF746FF02460B46F0
:1036400040464946FDF76AF802460B4620462946A1
:10365000FCF784FD02460B4610461946FDF70CFAAE
:103660000346404AD36674E0FB88B3F5005F70D12F
:103670004FF480513D4800F0B9FF0346002B34D190
:10368000374B93F88530002B63D1364B1B6F1846B0
:10369000FCF7C2FE04460D46314BD3F88C30184679
:1036A000FCF7BAFE804689462D4BD3F89030184679
:1036B000FCF7B2FE4FF000022B4BFCF705FF024671
:1036C0000B4640464946FDF729F802460B46204680
:1036D0002946FCF743FD02460B4610461946FDF706
:1036E000CBF903461F4A136733E01D4B93F885302F
:1036F000012B2ED11B4B1B6F1846FCF78DFE044689
:103700000D46174BD3F88C301846FCF785FE8046E3
:103710008946134BD3F890301846FCF77DFE4FF0E6
:103720000002114BFCF7D0FE02460B4640464946CC
:10373000FCF7F4FF02460B4620462946FCF70CFD39
:1037400002460B4610461946FDF796F90346054A10
:10375000136700BF0837BD46BDE8B08300080140CD
:10376000800300203404002000001C40000C0140B5
:1037700080B400AF72B600BF00BFFDE780B485B073
:1037800000AF154B9B69144A43F001039361124B40
:103790009B6903F00103BB60BB680F4BDB690E4AFA
:1037A00043F08053D3610C4BDB6903F080537B60A3
:1037B0007B680A4B5B68FB60FB6823F0E063FB609F
:1037C000FB6843F00073FB60044AFB68536000BF72
:1037D0001437BD4680BC7047001002400000014015
:1037E00080B588B000AF786007F1100300221A603E
:1037F0005A609A60DA607B681B68144A934221D150
:10380000134B9B69124A43F400739361104B9B69FD
:1038100003F40073FB60FB680D4B9B690C4A43F09B
:10382000040393610A4B9B6903F00403BB60BB680C
:1038300007233B6103237B6107F110031946054809
:1038400000F050FD00BF2037BD4680BD0024014080
:10385000001002400008014080B588B000AF7860D9
:1038600007F1100300221A605A609A60DA607B68E0
:103870001B681F4A934237D11E4B9B691D4A43F474
:10388000805393611B4B9B6903F48053FB60FB687F
:10389000184B9B69174A43F004039361154B9B69CE
:1038A00003F00403BB60BB6820233B6102237B6100
:1038B0000323FB6107F1100319460F4800F012FDC6
:1038C00040233B6100237B610023BB6107F11003B0
:1038D0001946094800F006FD00220021232000F0CF
:1038E00052FC232000F06BFC00BF2037BD4680BD9A
:1038F00000300140001002400008014080B584B053
:1039000000AF78607B681B681A4A934214D11A4B47
:10391000DB69194A43F00203D361174BDB6903F0FB
:103920000203FB60FB68002200211D2000F02BFC3D
:103930001D2000F044FC18E07B681B680F4A93428E
:1039400013D10D4BDB690C4A43F00403D3610A4BDE
:10395000DB6903F00403BB60BB68002200211E206A
:1039600000F011FC1E2000F02AFC00BF1037BD46FD
:1039700080BD00BF0004004000100240000800406D
:1039800080B400AF00BFFDE780B400AF00BFFDE72B
:1039900080B400AF00BFFDE780B400AF00BFFDE71B
:1039A00080B400AF00BFFDE780B400AF00BFBD46EC
:1039B00080BC704780B400AF00BFBD4680BC70477C
:1039C00080B400AF00BFBD4680BC704780B500AF7B
:1039D00000F0B0F800BF80BD80B500AF024800F035
:1039E0008AFF00BF80BD00BF9012002080B500AFED
:1039F0004FF4007000F042FE00BF80BD80B500AF04
:103A0000024803F0A3FA00BF80BD00BFF00200200F
:103A100080B500AF024803F099FA00BF80BD00BF37
:103A20003803002080B500AF024803F0C5F800BF9E
:103A300080BD00BF9802002080B500AF4FF4005059
:103A400000F01CFE4FF4004000F018FE00BF80BDE7
:103A500080B400AF00BFBD4680BC7047FFF7F8FFE1
:103A60000B480C490C4A002302E0D458C4500433DC
:103A7000C4188C42F9D3094A094C002301E01360B1
:103A80000432A242FBD308F011FCFEF7AFFF7047EF
:103A90000000002020020020F8DC000820020020A6
:103AA000D8180020FEE7000080B500AF084B1B6867
:103AB000074A43F010031360032000F059FB0F2066
:103AC00000F008F8FFF75AFE0023184680BD00BF3B
:103AD0000020024080B582B000AF7860124B1A68B7
:103AE000124B1B7819464FF47A73B3FBF1F3B2FB18
:103AF000F3F3184600F071FB0346002B01D00123BD
:103B00000EE07B680F2B0AD8002279684FF0FF3057
:103B100000F039FB064A7B681360002300E00123B4
:103B200018460837BD4680BD4000002048000020F0
:103B30004400002080B400AF054B1B781A46054BAB
:103B40001B681344034A136000BFBD4680BC704726
:103B500048000020C405002080B400AF024B1B6861
:103B60001846BD4680BC7047C405002080B584B0AF
:103B700000AF7860FFF7F0FFB8607B68FB60FB6820
:103B8000B3F1FF3F05D00A4B1B781A46FB6813447C
:103B9000FB6000BFFFF7E0FF0246BB68D31AFA687C
:103BA0009A42F7D800BF00BF1037BD4680BD00BFA6
:103BB0004800002080B586B000AF78600023FB7518
:103BC00000233B610023BB600023FB607B68002B6C
:103BD00001D10123BEE07B689B68002B7B689B6A58
:103BE000002B09D17B680022DA627B68002283F80F
:103BF00024207868FFF7F4FD786800F0ABF90346FD
:103C0000FB757B689B6A03F01003002B40F09980E2
:103C1000FB7D002B40F095807B689B6A23F48853E2
:103C200023F0020343F002027B689A627B685A68C1
:103C30007B68DB691A437B681B7B5B001343BA68B4
:103C40001343BB607B689B68B3F5807F03D07B68C0
:103C50009B68012B02D14FF4807300E000233A6986
:103C600013433B617B681B7D012B19D17B681B7B58
:103C7000002B09D17B689B69013B5A033B691343C5
:103C800043F400633B610BE07B689B6A43F02002D6
:103C90007B689A627B68DB6A43F001027B68DA62C8
:103CA0007B681B685B6823F469417B681B683A6921
:103CB0000A435A607B681B689A68284B13407A68ED
:103CC0001268B9680B4393607B689B68B3F5807F8B
:103CD00003D07B689B68012B04D17B681B69013B87
:103CE0001B05FB607B681B68DB6A23F470017B6843
:103CF0001B68FA680A43DA627B681B689A68184B8B
:103D00001340BA689A420BD17B680022DA627B6862
:103D10009B6A23F0030343F001027B689A6218E078
:103D20007B689B6A23F0120343F010027B689A625F
:103D30007B68DB6A43F001027B68DA620123FB7572
:103D400007E07B689B6A43F010027B689A6201235C
:103D5000FB75FB7D18461837BD4680BDFDF7E1FFBA
:103D6000FE0E1FFF80B485B000AF7860396000237D
:103D7000FB730023BB607B6893F82430012B01D1D7
:103D80000223DCE07B68012283F824203B685B6827
:103D9000062B1CD87B681B68596B3B685A68134616
:103DA0009B001344053B1F2202FA03F3DB43194037
:103DB0003B6818683B685A6813469B001344053BF0
:103DC00000FA03F27B681B680A435A633CE03B68D5
:103DD0005B680C2B1CD87B681B68196B3B685A68A6
:103DE00013469B001344233B1F2202FA03F3DB43D9
:103DF00019403B6818683B685A6813469B00134497
:103E0000233B00FA03F27B681B680A431A631BE03A
:103E10007B681B68D96A3B685A6813469B00134449
:103E2000413B1F2202FA03F3DB4319403B68186849
:103E30003B685A6813469B001344413B00FA03F267
:103E40007B681B680A43DA623B681B68092B1CD934
:103E50007B681B68D9683B681A6813465B0013448B
:103E60001E3B072202FA03F3DB4319403B689868C4
:103E70003B681A6813465B0013441E3B00FA03F2CA
:103E80007B681B680A43DA6019E07B681B68196964
:103E90003B681A6813465B001344072202FA03F3D7
:103EA000DB4319403B6898683B681A6813465B001F
:103EB000134400FA03F27B681B680A431A613B68EB
:103EC0001B68102B03D03B681B68112B32D17B6819
:103ED0001B681D4A934225D17B681B689B6803F4CD
:103EE0000003002B26D17B681B689A687B681B68DF
:103EF00042F400029A603B681B68102B1AD1134BE6
:103F00001B68134AA2FB03239A0C13469B0013441D
:103F10005B00BB6002E0BB68013BBB60BB68002B81
:103F2000F9D107E07B689B6A43F020027B689A62C4
:103F30000123FB737B68002283F82420FB7B184657
:103F40001437BD4680BC704700240140400000206B
:103F500083DE1B4380B584B000AF78600023FB6034
:103F60007B681B689B6803F00103012B2ED17B68E3
:103F70001B689A687B681B6822F001029A60FFF751
:103F8000EBFDF8601BE0FFF7E7FD0246FB68D31A84
:103F9000022B14D97B681B689B6803F00103012B7B
:103FA0000DD17B689B6A43F010027B689A627B6844
:103FB000DB6A43F001027B68DA62012307E07B6879
:103FC0001B689B6803F00103012BDCD0002318461B
:103FD0001037BD4680BD000080B485B000AF78606A
:103FE0007B6803F00703FB600C4BDB68BB60BA68BF
:103FF0004FF6FF031340BB60FB681A02BB68134314
:1040000043F0BF6343F40033BB60044ABB68D36032
:1040100000BF1437BD4680BC704700BF00ED00E014
:1040200080B400AF044BDB681B0A03F0070318469B
:10403000BD4680BC704700BF00ED00E080B483B097
:1040400000AF0346FB7197F90730002B0BDBFB79C0
:1040500003F01F02064997F907305B09012000FAB7
:1040600002F241F8232000BF0C37BD4680BC7047E8
:1040700000E100E080B483B000AF03463960FB711B
:1040800097F90730002B0ADB3B68DAB20C4997F945
:1040900007301201D2B20B4483F800230AE03B68D8
:1040A000DAB20849FB7903F00F03043B1201D2B2E4
:1040B0000B441A7600BF0C37BD4680BC704700BF6A
:1040C00000E100E000ED00E080B489B000AFF860EE
:1040D000B9607A60FB6803F00703FB61FB69C3F119
:1040E0000703042B28BF0423BB61FB690433062BA1
:1040F00002D9FB69033B00E000237B614FF0FF32F4
:10410000BB6902FA03F3DA43BB681A407B699A4041
:104110004FF0FF317B6901FA03F3D9437B680B4011
:10412000134318462437BD4680BC704780B582B023
:1041300000AF78607B68013BB3F1807F01D301233E
:104140000FE00A4A7B68013B53600F214FF0FF30BC
:10415000FFF790FF054B00229A60044B07221A607C
:10416000002318460837BD4680BD00BF10E000E0C0
:1041700080B582B000AF78607868FFF72DFF00BF90
:104180000837BD4680BD80B586B000AF0346B96034
:104190007A60FB7300237B61FFF742FF78617A68E6
:1041A000B9687869FFF790FF024697F90F3011461A
:1041B0001846FFF75FFF00BF1837BD4680BD80B5CA
:1041C00082B000AF0346FB7197F907301846FFF73E
:1041D00035FF00BF0837BD4680BD80B582B000AF57
:1041E00078607868FFF7A2FF034618460837BD4697
:1041F00080BD000080B584B000AF78600023FB7301
:104200007B6893F82130DBB2022B05D07B68042257
:104210009A630123FB7351E07B681B681A687B6813
:104220001B6822F00E021A607B681B681A687B68A4
:104230001B6822F001021A607B681B68224A9342C5
:1042400029D07B681B68214A934222D07B681B6877
:104250001F4A93421AD07B681B681E4A934212D0B1
:104260007B681B681C4A93420AD07B681B681B4A08
:10427000934202D14FF480130EE04FF080730BE0B5
:104280004FF4803308E04FF4805305E04FF480731F
:1042900002E0102300E00123114A53607B680122F1
:1042A00083F821207B68002283F820207B685B6BE9
:1042B000002B03D07B685B6B78689847FB7B1846C4
:1042C0001037BD4680BD00BF080002401C00024000
:1042D0003000024044000240580002406C0002409E
:1042E0000000024080B48BB000AF786039600023DA
:1042F0007B6200233B6269E101227B6A02FA03F3DD
:10430000FB613B681B68FA691340BB61BA69FB69D2
:104310009A4240F058813B685B689A4A93425ED06B
:10432000984A934275D8984A934258D0964A9342F5
:104330006FD8964A934252D0944A934269D8944A8D
:1043400093424CD0924A934263D8924A934246D0C9
:10435000904A93425DD8122B2AD8122B59D801A229
:1043600052F823F0DF430008B9430008CB430008AC
:104370000D440008134400081344000813440008C7
:1043800013440008134400081344000813440008B1
:1043900013440008134400081344000813440008A1
:1043A0001344000813440008C1430008D543000823
:1043B000794A934213D02CE03B68DB683B6229E0EA
:1043C0003B68DB6804333B6224E03B68DB6808330E
:1043D0003B621FE03B68DB680C333B621AE03B68E2
:1043E0009B68002B02D104233B6213E03B689B686F
:1043F000012B05D108233B627B68FA691A6109E049
:1044000008233B627B68FA695A6103E000233B6240
:1044100000E000BFBB69FF2B01D87B6801E07B682F
:1044200004337B61BB69FF2B02D87B6A9B0002E0EF
:104430007B6A083B9B003B617B691A680F213B69E3
:1044400001FA03F3DB431A40396A3B6901FA03F3CB
:104450001A437B691A603B685B6803F08053002B4A
:1044600000F0B1804D4B9B694C4A43F001039361CE
:104470004A4B9B6903F00103BB60BB68484A7B6AF7
:104480009B08023352F82330FB607B6A03F003037E
:104490009B000F2202FA03F3DB43FA681340FB6030
:1044A0007B68404A934213D07B683F4A93420DD0C9
:1044B0007B683E4A934207D07B683D4A934201D1D4
:1044C000032306E0042304E0022302E0012300E0CA
:1044D00000237A6A02F0030292009340FA681343C1
:1044E000FB602F497B6A9B080233FA6841F823205E
:1044F0003B685B6803F48013002B06D02D4B9A6851
:104500002C49BB6913438B6006E02A4B9A68BB6950
:10451000DB43284913408B603B685B6803F400135E
:10452000002B06D0234BDA682249BB691343CB60CA
:1045300006E0204BDA68BB69DB431E491340CB60C1
:104540003B685B6803F40033002B06D0194B5A68B4
:104550001849BB6913434B6006E0164B5A68BB69A8
:10456000DB43144913404B603B685B6803F48033C2
:10457000002B21D00F4B1A680E49BB6913430B6007
:1045800021E000BF000032100000311000002210B6
:104590000000211000001210000011100010024055
:1045A0000000014000080140000C014000100140E3
:1045B00000140140000401400B4B1A68BB69DB4347
:1045C000094913400B607B6A01337B623B681A68C0
:1045D0007B6A22FA03F3002B7FF48EAE00BF00BF8C
:1045E0002C37BD4680BC70470004014080B485B0C4
:1045F00000AF78600B467B807B689A687B881340AD
:10460000002B02D00123FB7301E00023FB73FB7B33
:1046100018461437BD4680BC704780B483B000AFE5
:1046200078600B467B8013467B707B78002B03D031
:104630007A887B681A6103E07B881A047B681A61B8
:1046400000BF0C37BD4680BC704780B485B000AF5A
:1046500078600B467B807B68DB68FB607A88FB6850
:1046600013401A04FB68D9437B880B401A437B68CC
:104670001A6100BF1437BD4680BC704780B582B058
:1046800000AF0346FB80084B5A69FB881340002BA0
:1046900006D0054AFB885361FB881846FEF7F4FEF6
:1046A00000BF0837BD4680BD00040140F0B58BB0A7
:1046B00006AF78607B68002B01D10123F1E07B68B5
:1046C00093F8A932DBB2002B06D17B68002283F875
:1046D000A822786807F032FB7B68032283F8A922BE
:1046E0007B681B68184602F0B3FF7B681B683B6061
:1046F0007E686D4606F110040FCC0FC523682B6051
:10470000331D0ECB386802F07DFF0346002B05D029
:104710007B68022283F8A9220123C2E07B681B6820
:104720000021184602F0AEFF0023FB7340E0FB7B44
:1047300079685A1C13469B001344DB000B44013379
:1047400001221A70FB7B79685A1C13469B001344A4
:10475000DB000B44FA7B1A70FB7B79685A1C13460A
:104760009B001344DB000B44033300221A70FA7BD6
:10477000796813469B001344DB000B443833002256
:104780001A60FA7B796813469B001344DB000B44E4
:104790003C3300221A60FA7B796813469B0013446D
:1047A000DB000B44403300221A60FB7B0133FB73B8
:1047B000FA7B7B685B689A42B9D30023FB7344E0C1
:1047C000FA7B796813469B001344DB000B4403F229
:1047D000691300221A70FA7B796813469B00134410
:1047E000DB000B4403F5B473FA7B1A70FA7B79682B
:1047F00013469B001344DB000B4403F26B130022AF
:104800001A70FA7B796813469B001344DB000B4453
:1048100003F5BC7300221A60FA7B796813469B008B
:104820001344DB000B4403F5BE7300221A60FA7BCD
:10483000796813469B001344DB000B4403F5C073F7
:1048400000221A60FB7B0133FB73FA7B7B685B6899
:104850009A42B5D37B681B683B607E686D4606F163
:1048600010040FCC0FC523682B60331D0ECB3868A6
:1048700002F014FF0346002B05D07B68022283F868
:10488000A92201230DE07B68002283F824207B68A5
:10489000012283F8A9227B681B68184605F095F968
:1048A000002318461437BD46F0BD80B582B000AF76
:1048B00078607B6893F8A832012B01D1022316E0BF
:1048C0007B68012283F8A8227B681B68184602F0E7
:1048D000A9FE0121786807F0A4FC7B681B681846D4
:1048E00005F069F97B68002283F8A82200231846A6
:1048F0000837BD4680BD80B588B000AF78607B6862
:104900001B68184605F06BF9B861BB6903F40043F6
:10491000002B03D0786800F01BFB19E1BB6903F49E
:104920008063002B13D07B681B68B3F844309AB2C5
:104930007B681B6822F4806292B2A3F844207868F6
:1049400007F077FA0021786800F005F900E1BB690B
:1049500003F48043002B0CD07B681B68B3F8443011
:104960009AB27B681B6822F4804292B2A3F844207A
:10497000EEE0BB6903F40053002B0CD07B681B688E
:10498000B3F844309AB27B681B6822F4005292B2AA
:10499000A3F84420DCE0BB6903F48053002B27D04C
:1049A0007B681B68B3F840309AB27B681B6822F0C2
:1049B000040292B2A3F840207B681B68B3F8403031
:1049C0009AB27B681B6822F0080292B2A3F84020DA
:1049D000786807F067FA7B681B68B3F844309AB2CE
:1049E0007B681B6822F4805292B2A3F84420AFE0A7
:1049F000BB6903F40063002B00F083800023FB7786
:104A000010E07B681B681A46FB7F9B001A44FB7F03
:104A1000128892B25B0020333B4423F8182CFB7FB2
:104A20000133FB77FB7F072BEBD97B681B68B3F85F
:104A300040309AB27B681B6842F0010292B2A3F840
:104A400040207B681B68B3F840309AB27B681B68D3
:104A500022F0010292B2A3F8402000BF7B681B68DD
:104A6000B3F844309BB203F48063002BF6D07B682C
:104A70001B68B3F844309AB27B681B6822F48062EA
:104A800092B2A3F844200023FB770FE0FB7F7A6803
:104A900012681146FA7F92000A445B0020333B44BF
:104AA00033F8183C1380FB7F0133FB77FB7F072B28
:104AB000ECD97B681B68B3F840309AB27B681B68FE
:104AC00042F0080292B2A3F840207B681B68B3F85A
:104AD00044309AB27B681B6822F4006292B2A3F859
:104AE00044207B681B68B3F840309AB27B681B682F
:104AF00042F0040292B2A3F84020786807F0B8F9B7
:104B000026E0BB6903F40073002B0FD07B681B68A1
:104B1000B3F844309AB27B681B6822F4007292B2F8
:104B2000A3F84420786807F076F911E0BB6903F434
:104B30008073002B0CD07B681B68B3F844309AB2AA
:104B40007B681B6822F4807292B2A3F8442000BFF5
:104B50002037BD4680BD80B582B000AF78600B467F
:104B6000FB707B6893F8A832012B01D1022313E07C
:104B70007B68012283F8A8227B68FA7883F82420D6
:104B80007B681B68FA781146184605F001F87B68C7
:104B9000002283F8A822002318460837BD4680BDAE
:104BA00080B584B000AF7860084611461A460346C7
:104BB000FB700B463B801346BB700023FB7297F9DA
:104BC0000330002B0EDAFB7803F007035A1C134660
:104BD0009B001344DB007A681344FB60FB680122EE
:104BE0005A700EE0FB7803F0070213469B00134453
:104BF000DB0003F5B4737A681344FB60FB680022A2
:104C00005A70FB7803F00703DAB2FB681A703A882F
:104C1000FB681A61FB68BA78DA70BB78022B02D1A4
:104C2000FB6800221A717B6893F8A832012B01D12E
:104C300002230EE07B68012283F8A8227B681B68B0
:104C4000F968184602F04AFD7B68002283F8A82222
:104C5000FB7A18461037BD4680BD80B584B000AFE2
:104C600078600B46FB7097F90330002B0EDAFB7867
:104C700003F007035A1C13469B001344DB007A68B9
:104C80001344FB60FB6801225A700EE0FB7803F0CE
:104C9000070213469B001344DB0003F5B4737A68E4
:104CA0001344FB60FB6800225A70FB7803F0070393
:104CB000DAB2FB681A707B6893F8A832012B01D135
:104CC00002230EE07B68012283F8A8227B681B6820
:104CD000F968184603F0C2F87B68002283F8A8221E
:104CE000002318461037BD4680BD80B586B000AFA2
:104CF000F8607A603B600B46FB72FB7A03F00702B8
:104D000013469B001344DB0003F5B473FA681344A5
:104D10007B617B697A685A617B693A689A617B69D1
:104D20000022DA617B6900225A70FB7A03F00703E4
:104D3000DAB27B691A70FB681B687969184603F060
:104D400079FA002318461837BD4680BD80B483B079
:104D500000AF78600B46FB70FB7803F007027968C0
:104D600013469B001344DB000B4403F5C2731B681E
:104D700018460C37BD4680BC704780B586B000AF82
:104D8000F8607A603B600B46FB72FB7A03F0070326
:104D90005A1C13469B001344DB00FA6813447B61E2
:104DA0007B697A685A617B693A689A617B690122FA
:104DB00083F824207B693A681A627B690022DA61F1
:104DC0007B6901225A70FB7A03F00703DAB27B6930
:104DD0001A70FB681B687969184603F02BFA0023E8
:104DE00018461837BD4680BD80B584B000AF7860E6
:104DF0000B46FB70FB7803F007027B685B689A4206
:104E000001D901234CE097F90330002B0EDAFB782F
:104E100003F007035A1C13469B001344DB007A6817
:104E20001344FB60FB6801225A700CE0FA781346C9
:104E30009B001344DB0003F5B4737A681344FB60F2
:104E4000FB6800225A70FB6801229A70FB7803F01D
:104E50000703DAB2FB681A707B6893F8A832012B5B
:104E600001D102231CE07B68012283F8A8227B6821
:104E70001B68F968184604F08EFDFB7803F0070301
:104E8000002B08D17B681A687B6803F52C731946E0
:104E9000104604F0B3FE7B68002283F8A8220023AA
:104EA00018461037BD4680BD80B584B000AF78602D
:104EB0000B46FB70FB7803F00F027B685B689A423D
:104EC00001D9012340E097F90330002B0EDAFB787B
:104ED00003F007035A1C13469B001344DB007A6857
:104EE0001344FB60FB6801225A700EE0FB7803F06C
:104EF000070213469B001344DB0003F5B4737A6882
:104F00001344FB60FB6800225A70FB6800229A7011
:104F1000FB7803F00703DAB2FB681A707B6893F83A
:104F2000A832012B01D102230EE07B68012283F815
:104F3000A8227B681B68F968184604F07CFD7B6832
:104F4000002283F8A822002318461037BD4680BDF2
:104F500080B596B000AF7860BEE37B681B68B3F89D
:104F60004430A7F84E30B7F84E30DBB203F00F03F1
:104F700087F84D3097F84D30002B40F07881B7F826
:104F80004E3003F01003002B51D17B681B681B8847
:104F90009BB223F4E14323F07003FB817B681A6822
:104FA000FB896FEA43436FEA53439BB213807B68EC
:104FB00028337B657B681B68B3F850309BB21A4678
:104FC0007B6D1B78DB00134402335B007A68126848
:104FD000134403F580631B88C3F309027B6DDA6118
:104FE0007B6D5A697B6DDB691A447B6D5A610021C8
:104FF000786806F0F6FE7B6893F82430DBB2002B6D
:1050000000F06A837B6D9B69002B40F065837B68B1
:1050100093F82430DBB263F07F03DAB27B681B685D
:10502000A3F84C207B68002283F8242054E37B689B
:1050300003F5B4737B657B681B681B88A7F84A304F
:10504000B7F84A3003F40063002B34D07B681B6848
:10505000B3F850309BB21A467B6D1B78DB001344CB
:1050600006335B007A681268134403F580631B887B
:10507000C3F309027B6DDA617B6818687B6803F50E
:105080002C717B6DDA887B6DDB699BB204F006FEC8
:105090007B681B681B889AB240F68F7313403B8273
:1050A0007B681B683A8A42F0800292B21A80786864
:1050B00006F06AFE10E3B7F94A30002B80F20C8349
:1050C0007B681B681B889AB240F68F731340FB8382
:1050D0007B681B68FA8B42F0800292B21A807B6870
:1050E0001B68B3F850309BB21A467B6D1B78DB000F
:1050F000134406335B007A681268134403F5806337
:105100001B88C3F309027B6DDA617B6DDB69002BC1
:1051100019D07B6D5B69002B15D07B6818687B6D9F
:1051200059697B6DDA887B6DDB699BB204F0B6FD53
:105130007B6D5A697B6DDB691A447B6D5A61002176
:10514000786806F033FE7B681B681B88A7F84A3036
:10515000B7F84A3003F40063002B40F0BD82B7F883
:105160004A3003F44053B3F5405F00F0B5827B68EA
:105170001B68BB617B681B68B3F850309BB21A4652
:10518000BB691344BB61BB6903F20C437B617B6960
:105190001B889BB2C3F309039AB27B691A807B6DAB
:1051A0001B693E2B1DD97B6D1B695B097B647B6D85
:1051B0001B6903F01F03002B02D17B6C013B7B6456
:1051C0007B691B889AB27B6C9BB29B029BB2134398
:1051D0009BB26FEA43436FEA53439AB27B691A80EA
:1051E00026E07B6D1B69002B0AD17B691B889BB273
:1051F0006FEA43436FEA53439AB27B691A8017E020
:105200007B6D1B695B087B647B6D1B6903F001038D
:10521000002B02D07B6C01337B647B691B889AB2C4
:105220007B6C9BB29B029BB213439AB27B691A8040
:105230007B681B681B889BB223F4804323F07003B8
:105240007B827B8A83F480537B827B8A83F4005346
:105250007B827B681A687B8A43F07F4343F47F0339
:1052600043F4004343F080039BB2138034E27B6835
:105270001B681A4697F84D309B0013441B88A7F80B
:105280004A30B7F94A30002B80F2FC807B681B68FB
:105290001A4697F84D309B0013441B889AB240F68B
:1052A0008F731340A7F848307B681B681A4697F83D
:1052B0004D309B001344B7F8482042F0800292B270
:1052C0001A8097F84D2013469B001344DB0003F52A
:1052D000B4737A6813447B657B6D1B7B002B25D1EF
:1052E0007B681B68B3F850309BB21A467B6D1B7805
:1052F000DB00134406335B007A681268134403F53D
:1053000080631B88C3F30903A7F85030B7F8503007
:10531000002B00F092807B6818687B6D59697B6D6B
:10532000DA88B7F8503004F0B9FC86E07B6DDB78A2
:10533000022B0AD1B7F84A301A46796D786800F026
:10534000D9F90346A7F8503077E07B681B681A4606
:105350007B6D1B789B0013441B889BB223F4E043B6
:1053600023F07003A7F852307B681B681A467B6DE8
:105370001B789B001A44B7F8523043F07F4343F444
:105380007F0343F4004343F0C0039BB213807B6868
:105390001B681A467B6D1B789B0013441B889BB2CD
:1053A00003F48043002B24D07B681B68B3F8503093
:1053B0009BB21A467B6D1B78DB00134402335B0003
:1053C0007A681268134403F580631B88C3F30903EA
:1053D000A7F85030B7F85030002B2ED07B681868F3
:1053E0007B6D59697B6D1A89B7F8503004F056FC13
:1053F00023E07B681B68B3F850309BB21A467B6D84
:105400001B78DB00134406335B007A681268134490
:1054100003F580631B88C3F30903A7F85030B7F87E
:105420005030002B09D07B6818687B6D59697B6D03
:105430005A89B7F8503004F031FC7B6DDA69B7F85F
:1054400050301A447B6DDA617B6D5A69B7F8503081
:105450001A447B6D5A617B6D9B69002B05D0B7F8B0
:1054600050207B6D1B699A4206D27B6D1B781946D2
:10547000786806F09BFC05E07B681B68796D184630
:1054800002F0D8FEB7F84A3003F08003002B00F09A
:10549000238197F84D305A1C13469B001344DB00C0
:1054A0007A6813447B657B681B681A4697F84D3011
:1054B0009B0013441B889BB223F4E14323F0700349
:1054C000A7F842307B681B681A4697F84D309B005E
:1054D0001A44B7F842306FEA43436FEA53439BB232
:1054E00013807B6DDB78012B40F0A2807B6D002266
:1054F0009A617B6D1B7B002B00F09380B7F84A30DC
:1055000003F04003002B46D07B6D5B78002B26D147
:105510007B681B687B627B681B68B3F850309BB26A
:105520001A467B6A13447B627B6D1B781A017B6A87
:10553000134403F204433B623B6A1B889BB2C3F3F0
:1055400009039AB23B6A1A803B6A1B889BB26FEAD6
:1055500043436FEA53439AB23B6A1A8061E07B6D22
:105560005B78012B5DD17B681B68FB627B681B68E5
:10557000B3F850309BB21A46FB6A1344FB627B6D52
:105580001B781A01FB6A134403F20443BB62BB6A33
:1055900000221A8045E07B681B68FB637B6D5B78AB
:1055A000002B26D17B681B687B637B681B68B3F884
:1055B00050309BB21A467B6B13447B637B6D1B7828
:1055C0001A017B6B134403F20C433B633B6B1B8858
:1055D0009BB2C3F309039AB23B6B1A803B6B1B88E7
:1055E0009BB26FEA43436FEA53439AB23B6B1A8014
:1055F00017E07B6D5B78012B13D17B681B68B3F8D8
:1056000050309BB21A46FB6B1344FB637B6D1B78D7
:105610001A01FB6B134403F20C43BB63BB6B002208
:105620001A807B6D1B781946786806F0DAFB53E028
:10563000B7F84A3003F48073002B46D17B681B68AF
:10564000B3F850309BB21A467B6D1B78DB001344D5
:1056500002335B007A681268134403F580631B8889
:10566000C3F30903A7F840307B6D9A69B7F840305F
:105670009A4207D97B6D9A69B7F84030D21A7B6D90
:105680009A6102E07B6D00229A617B6D9B69002B21
:1056900006D17B6D1B781946786806F0A2FB1BE0EB
:1056A0007B6D5A69B7F840301A447B6D5A617B6D47
:1056B000DA69B7F840301A447B6DDA617B681B68A1
:1056C000796D184602F0B6FD06E0B7F84A301A4682
:1056D000796D786800F01BF97B681B68B3F844307B
:1056E0009BB21BB2002BFFF638AC0023184658378C
:1056F000BD4680BD80B588B000AFF860B960134684
:10570000FB80FB8803F48043002B7ED0FB681B6882
:10571000B3F850309BB21A46BB681B78DB001344C9
:1057200002335B00FA681268134403F580631B8838
:10573000C3F309037B83BB689A697B8B9A4206D3C8
:10574000BB689A697B8BD21ABB689A6102E0BB681E
:1057500000229A61BB689B69002B23D1FB681B6800
:105760001A46BB681B789B0013441B889BB223F42A
:10577000804323F070033B833B8B83F400533B83D4
:10578000FB681B681A46BB681B789B001A443B8B5E
:1057900043F07F4343F47F0343F4004343F080032B
:1057A0009BB21380FB8803F04003002B1FD0FB68E3
:1057B0001B681A46BB681B789B0013441B889BB26E
:1057C00023F4E04323F07003FB82FB681B681A4656
:1057D000BB681B789B001A44FB8A43F07F4343F469
:1057E0007F0343F4004343F0C0039BB213807B8BE1
:1057F000002B00F08780FB681868BB685969BB689C
:105800001A897B8B04F04AFA7CE0FB681B68B3F8CA
:1058100050309BB21A46BB681B78DB00134406333A
:105820005B00FA681268134403F580631B88C3F3B6
:1058300009037B83BB689A697B8B9A4206D3BB685A
:105840009A697B8BD21ABB689A6102E0BB6800221E
:105850009A61BB689B69002B23D1FB681B681A46C1
:10586000BB681B789B0013441B889BB223F48043C6
:1058700023F07003FB83FB8B83F40053FB83FB68F3
:105880001B681A46BB681B789B001A44FB8B43F0CD
:105890007F4343F47F0343F4004343F080039BB210
:1058A0001380FB8803F04003002B1FD1FB681B68AB
:1058B0001A46BB681B789B0013441B889BB223F4D9
:1058C000E04323F07003BB83FB681B681A46BB6888
:1058D0001B789B001A44BB8B43F07F4343F47F0348
:1058E00043F4004343F0C0039BB213807B8B002B37
:1058F00008D0FB681868BB685969BB685A897B8BFC
:1059000004F0CCF97B8B18462037BD4680BD80B5AE
:10591000A4B000AFF860B9601346FB80FB8803F0C9
:105920004003002B00F0DD81FB681B68B3F85030AA
:105930009BB21A46BB681B78DB00134402335B0042
:10594000FA681268134403F580631B88C3F30903E4
:10595000A7F88630BB689A69B7F886309A4207D9AB
:10596000BB689A69B7F88630D21ABB689A6102E0C0
:10597000BB6800229A61BB689B69002B40F0B9802C
:10598000BB685B78002B26D1FB681B68FB62FB6859
:105990001B68B3F850309BB21A46FB6A1344FB6293
:1059A000BB681B781A01FB6A134403F20443BB6211
:1059B000BB6A1B889BB2C3F309039AB2BB6A1A8005
:1059C000BB6A1B889BB26FEA43436FEA53439AB2A8
:1059D000BB6A1A801AE0BB685B78012B16D1FB68A2
:1059E0001B687B63FB681B68B3F850309BB21A4698
:1059F0007B6B13447B63BB681B781A017B6B13447E
:105A000003F204433B633B6B00221A80FB681B6874
:105A10007B62BB685B78002B26D1FB681B68FB614F
:105A2000FB681B68B3F850309BB21A46FB691344FD
:105A3000FB61BB681B781A01FB69134403F20C433A
:105A4000BB61BB691B889BB2C3F309039AB2BB69F4
:105A50001A80BB691B889BB26FEA43436FEA5343CA
:105A60009AB2BB691A8017E0BB685B78012B13D12F
:105A7000FB681B68B3F850309BB21A467B6A13442C
:105A80007B62BB681B781A017B6A134403F20C43E8
:105A90003B623B6A00221A80BB681B781946F86893
:105AA00006F09FF9FB8803F48043002B00F0FC8292
:105AB000FB681B681A46BB681B789B0013441B8855
:105AC0009BB223F4E04323F07003FB82FB681B6866
:105AD0001A46BB681B789B001A44FB8A43F07F433D
